{
  "_format": "hh-sol-artifact-1",
  "contractName": "TheShouter",
  "sourceName": "contracts/TheShouter.sol",
  "abi": [
    {
      "inputs": [],
      "stateMutability": "nonpayable",
      "type": "constructor"
    },
    {
      "anonymous": false,
      "inputs": [
        {
          "indexed": true,
          "internalType": "address",
          "name": "owner",
          "type": "address"
        },
        {
          "indexed": true,
          "internalType": "address",
          "name": "approved",
          "type": "address"
        },
        {
          "indexed": true,
          "internalType": "uint256",
          "name": "tokenId",
          "type": "uint256"
        }
      ],
      "name": "Approval",
      "type": "event"
    },
    {
      "anonymous": false,
      "inputs": [
        {
          "indexed": true,
          "internalType": "address",
          "name": "owner",
          "type": "address"
        },
        {
          "indexed": true,
          "internalType": "address",
          "name": "operator",
          "type": "address"
        },
        {
          "indexed": false,
          "internalType": "bool",
          "name": "approved",
          "type": "bool"
        }
      ],
      "name": "ApprovalForAll",
      "type": "event"
    },
    {
      "anonymous": false,
      "inputs": [
        {
          "indexed": true,
          "internalType": "address",
          "name": "committer",
          "type": "address"
        },
        {
          "indexed": false,
          "internalType": "bytes",
          "name": "content",
          "type": "bytes"
        }
      ],
      "name": "CommitComment",
      "type": "event"
    },
    {
      "anonymous": false,
      "inputs": [
        {
          "indexed": true,
          "internalType": "address",
          "name": "renter",
          "type": "address"
        },
        {
          "indexed": false,
          "internalType": "string",
          "name": "uri",
          "type": "string"
        }
      ],
      "name": "RentBoard",
      "type": "event"
    },
    {
      "anonymous": false,
      "inputs": [
        {
          "indexed": true,
          "internalType": "address",
          "name": "from",
          "type": "address"
        },
        {
          "indexed": true,
          "internalType": "address",
          "name": "to",
          "type": "address"
        },
        {
          "indexed": true,
          "internalType": "uint256",
          "name": "tokenId",
          "type": "uint256"
        }
      ],
      "name": "Transfer",
      "type": "event"
    },
    {
      "inputs": [
        {
          "internalType": "address",
          "name": "to",
          "type": "address"
        },
        {
          "internalType": "uint256",
          "name": "tokenId",
          "type": "uint256"
        }
      ],
      "name": "approve",
      "outputs": [],
      "stateMutability": "nonpayable",
      "type": "function"
    },
    {
      "inputs": [],
      "name": "balance",
      "outputs": [
        {
          "internalType": "uint256",
          "name": "",
          "type": "uint256"
        }
      ],
      "stateMutability": "view",
      "type": "function"
    },
    {
      "inputs": [
        {
          "internalType": "address",
          "name": "owner",
          "type": "address"
        }
      ],
      "name": "balanceOf",
      "outputs": [
        {
          "internalType": "uint256",
          "name": "",
          "type": "uint256"
        }
      ],
      "stateMutability": "view",
      "type": "function"
    },
    {
      "inputs": [
        {
          "internalType": "uint256",
          "name": "_tokenId",
          "type": "uint256"
        }
      ],
      "name": "commentsLength",
      "outputs": [
        {
          "internalType": "uint256",
          "name": "",
          "type": "uint256"
        }
      ],
      "stateMutability": "view",
      "type": "function"
    },
    {
      "inputs": [
        {
          "internalType": "bytes",
          "name": "_comment",
          "type": "bytes"
        }
      ],
      "name": "commitComment",
      "outputs": [],
      "stateMutability": "nonpayable",
      "type": "function"
    },
    {
      "inputs": [
        {
          "internalType": "uint256",
          "name": "tokenId",
          "type": "uint256"
        }
      ],
      "name": "getApproved",
      "outputs": [
        {
          "internalType": "address",
          "name": "",
          "type": "address"
        }
      ],
      "stateMutability": "view",
      "type": "function"
    },
    {
      "inputs": [],
      "name": "interactable",
      "outputs": [
        {
          "internalType": "bool",
          "name": "",
          "type": "bool"
        }
      ],
      "stateMutability": "view",
      "type": "function"
    },
    {
      "inputs": [
        {
          "internalType": "address",
          "name": "owner",
          "type": "address"
        },
        {
          "internalType": "address",
          "name": "operator",
          "type": "address"
        }
      ],
      "name": "isApprovedForAll",
      "outputs": [
        {
          "internalType": "bool",
          "name": "",
          "type": "bool"
        }
      ],
      "stateMutability": "view",
      "type": "function"
    },
    {
      "inputs": [
        {
          "internalType": "address",
          "name": "forwarder",
          "type": "address"
        }
      ],
      "name": "isTrustedForwarder",
      "outputs": [
        {
          "internalType": "bool",
          "name": "",
          "type": "bool"
        }
      ],
      "stateMutability": "view",
      "type": "function"
    },
    {
      "inputs": [],
      "name": "maxBoardIndex",
      "outputs": [
        {
          "internalType": "uint256",
          "name": "",
          "type": "uint256"
        }
      ],
      "stateMutability": "view",
      "type": "function"
    },
    {
      "inputs": [],
      "name": "name",
      "outputs": [
        {
          "internalType": "string",
          "name": "",
          "type": "string"
        }
      ],
      "stateMutability": "view",
      "type": "function"
    },
    {
      "inputs": [
        {
          "internalType": "uint256",
          "name": "tokenId",
          "type": "uint256"
        }
      ],
      "name": "ownerOf",
      "outputs": [
        {
          "internalType": "address",
          "name": "",
          "type": "address"
        }
      ],
      "stateMutability": "view",
      "type": "function"
    },
    {
      "inputs": [
        {
          "internalType": "uint256",
          "name": "_tokenId",
          "type": "uint256"
        }
      ],
      "name": "queryComments",
      "outputs": [
        {
          "internalType": "bytes[]",
          "name": "",
          "type": "bytes[]"
        }
      ],
      "stateMutability": "view",
      "type": "function"
    },
    {
      "inputs": [
        {
          "internalType": "uint256",
          "name": "_tokenId",
          "type": "uint256"
        }
      ],
      "name": "queryCommitters",
      "outputs": [
        {
          "internalType": "address[]",
          "name": "",
          "type": "address[]"
        }
      ],
      "stateMutability": "view",
      "type": "function"
    },
    {
      "inputs": [
        {
          "internalType": "string",
          "name": "_uri",
          "type": "string"
        }
      ],
      "name": "rentBoard",
      "outputs": [],
      "stateMutability": "payable",
      "type": "function"
    },
    {
      "inputs": [
        {
          "internalType": "address",
          "name": "from",
          "type": "address"
        },
        {
          "internalType": "address",
          "name": "to",
          "type": "address"
        },
        {
          "internalType": "uint256",
          "name": "tokenId",
          "type": "uint256"
        }
      ],
      "name": "safeTransferFrom",
      "outputs": [],
      "stateMutability": "nonpayable",
      "type": "function"
    },
    {
      "inputs": [
        {
          "internalType": "address",
          "name": "from",
          "type": "address"
        },
        {
          "internalType": "address",
          "name": "to",
          "type": "address"
        },
        {
          "internalType": "uint256",
          "name": "tokenId",
          "type": "uint256"
        },
        {
          "internalType": "bytes",
          "name": "_data",
          "type": "bytes"
        }
      ],
      "name": "safeTransferFrom",
      "outputs": [],
      "stateMutability": "nonpayable",
      "type": "function"
    },
    {
      "inputs": [
        {
          "internalType": "address",
          "name": "operator",
          "type": "address"
        },
        {
          "internalType": "bool",
          "name": "approved",
          "type": "bool"
        }
      ],
      "name": "setApprovalForAll",
      "outputs": [],
      "stateMutability": "nonpayable",
      "type": "function"
    },
    {
      "inputs": [
        {
          "internalType": "bytes4",
          "name": "interfaceId",
          "type": "bytes4"
        }
      ],
      "name": "supportsInterface",
      "outputs": [
        {
          "internalType": "bool",
          "name": "",
          "type": "bool"
        }
      ],
      "stateMutability": "view",
      "type": "function"
    },
    {
      "inputs": [],
      "name": "symbol",
      "outputs": [
        {
          "internalType": "string",
          "name": "",
          "type": "string"
        }
      ],
      "stateMutability": "view",
      "type": "function"
    },
    {
      "inputs": [
        {
          "internalType": "uint256",
          "name": "tokenId",
          "type": "uint256"
        }
      ],
      "name": "tokenURI",
      "outputs": [
        {
          "internalType": "string",
          "name": "",
          "type": "string"
        }
      ],
      "stateMutability": "view",
      "type": "function"
    },
    {
      "inputs": [
        {
          "internalType": "address",
          "name": "from",
          "type": "address"
        },
        {
          "internalType": "address",
          "name": "to",
          "type": "address"
        },
        {
          "internalType": "uint256",
          "name": "tokenId",
          "type": "uint256"
        }
      ],
      "name": "transferFrom",
      "outputs": [],
      "stateMutability": "nonpayable",
      "type": "function"
    },
    {
      "inputs": [],
      "name": "trustedForwarder",
      "outputs": [
        {
          "internalType": "address",
          "name": "",
          "type": "address"
        }
      ],
      "stateMutability": "view",
      "type": "function"
    },
    {
      "inputs": [],
      "name": "versionRecipient",
      "outputs": [
        {
          "internalType": "string",
          "name": "",
          "type": "string"
        }
      ],
      "stateMutability": "view",
      "type": "function"
    }
  ],
  "bytecode": "0x60806040526040518060400160405280600581526020017f322e322e30000000000000000000000000000000000000000000000000000000815250600a90805190602001906200005192919062000106565b503480156200005f57600080fd5b506040518060400160405280600a81526020017f54686553686f75746572000000000000000000000000000000000000000000008152506040518060400160405280600381526020017f53424200000000000000000000000000000000000000000000000000000000008152508160009080519060200190620000e492919062000106565b508060019080519060200190620000fd92919062000106565b5050506200021a565b8280546200011490620001e5565b90600052602060002090601f01602090048101928262000138576000855562000184565b82601f106200015357805160ff191683800117855562000184565b8280016001018555821562000184579182015b828111156200018357825182559160200191906001019062000166565b5b50905062000193919062000197565b5090565b5b80821115620001b257600081600090555060010162000198565b5090565b7f4e487b7100000000000000000000000000000000000000000000000000000000600052602260045260246000fd5b60006002820490506001821680620001fe57607f821691505b602082108103620002145762000213620001b6565b5b50919050565b613fec806200022a6000396000f3fe60806040526004361061014b5760003560e01c80637da0a877116100b6578063b88d4fde1161006f578063b88d4fde146104ca578063c1466c3f146104f3578063c49e0e4614610530578063c87b56dd1461054c578063daa17e4414610589578063e985e9c5146105b45761014b565b80637da0a877146103ba5780638c246192146103e557806395d89b4114610422578063a22cb4651461044d578063b69ef8a814610476578063b6c5003c146104a15761014b565b806342842e0e1161010857806342842e0e14610272578063486ff0cd1461029b578063572b6c05146102c657806357dfa8f6146103035780636352211e1461034057806370a082311461037d5761014b565b806301ffc9a71461015057806306fdde031461018d578063081812fc146101b8578063095ea7b3146101f557806323b872dd1461021e57806339f2d12814610247575b600080fd5b34801561015c57600080fd5b50610177600480360381019061017291906126a8565b6105f1565b60405161018491906126f0565b60405180910390f35b34801561019957600080fd5b506101a26106d3565b6040516101af91906127a4565b60405180910390f35b3480156101c457600080fd5b506101df60048036038101906101da91906127fc565b610765565b6040516101ec919061286a565b60405180910390f35b34801561020157600080fd5b5061021c600480360381019061021791906128b1565b6107ea565b005b34801561022a57600080fd5b50610245600480360381019061024091906128f1565b610901565b005b34801561025357600080fd5b5061025c610961565b60405161026991906126f0565b60405180910390f35b34801561027e57600080fd5b50610299600480360381019061029491906128f1565b6109e1565b005b3480156102a757600080fd5b506102b0610a01565b6040516102bd91906127a4565b60405180910390f35b3480156102d257600080fd5b506102ed60048036038101906102e89190612944565b610a8f565b6040516102fa91906126f0565b60405180910390f35b34801561030f57600080fd5b5061032a600480360381019061032591906127fc565b610ae9565b6040516103379190612a88565b60405180910390f35b34801561034c57600080fd5b50610367600480360381019061036291906127fc565b610c36565b604051610374919061286a565b60405180910390f35b34801561038957600080fd5b506103a4600480360381019061039f9190612944565b610ce7565b6040516103b19190612ab9565b60405180910390f35b3480156103c657600080fd5b506103cf610d9e565b6040516103dc919061286a565b60405180910390f35b3480156103f157600080fd5b5061040c600480360381019061040791906127fc565b610dc8565b6040516104199190612b92565b60405180910390f35b34801561042e57600080fd5b50610437610eca565b60405161044491906127a4565b60405180910390f35b34801561045957600080fd5b50610474600480360381019061046f9190612be0565b610f5c565b005b34801561048257600080fd5b5061048b610f72565b6040516104989190612ab9565b60405180910390f35b3480156104ad57600080fd5b506104c860048036038101906104c39190612c85565b610f7a565b005b3480156104d657600080fd5b506104f160048036038101906104ec9190612e02565b6112c1565b005b3480156104ff57600080fd5b5061051a600480360381019061051591906127fc565b611323565b6040516105279190612ab9565b60405180910390f35b61054a60048036038101906105459190612edb565b61139d565b005b34801561055857600080fd5b50610573600480360381019061056e91906127fc565b611608565b60405161058091906127a4565b60405180910390f35b34801561059557600080fd5b5061059e611759565b6040516105ab9190612ab9565b60405180910390f35b3480156105c057600080fd5b506105db60048036038101906105d69190612f28565b61176a565b6040516105e891906126f0565b60405180910390f35b60007f80ac58cd000000000000000000000000000000000000000000000000000000007bffffffffffffffffffffffffffffffffffffffffffffffffffffffff1916827bffffffffffffffffffffffffffffffffffffffffffffffffffffffff191614806106bc57507f5b5e139f000000000000000000000000000000000000000000000000000000007bffffffffffffffffffffffffffffffffffffffffffffffffffffffff1916827bffffffffffffffffffffffffffffffffffffffffffffffffffffffff1916145b806106cc57506106cb826117fe565b5b9050919050565b6060600080546106e290612f97565b80601f016020809104026020016040519081016040528092919081815260200182805461070e90612f97565b801561075b5780601f106107305761010080835404028352916020019161075b565b820191906000526020600020905b81548152906001019060200180831161073e57829003601f168201915b5050505050905090565b600061077082611868565b6107af576040517f08c379a00000000000000000000000000000000000000000000000000000000081526004016107a69061303a565b60405180910390fd5b6004600083815260200190815260200160002060009054906101000a900473ffffffffffffffffffffffffffffffffffffffff169050919050565b60006107f582610c36565b90508073ffffffffffffffffffffffffffffffffffffffff168373ffffffffffffffffffffffffffffffffffffffff1603610865576040517f08c379a000000000000000000000000000000000000000000000000000000000815260040161085c906130cc565b60405180910390fd5b8073ffffffffffffffffffffffffffffffffffffffff166108846118d4565b73ffffffffffffffffffffffffffffffffffffffff1614806108b357506108b2816108ad6118d4565b61176a565b5b6108f2576040517f08c379a00000000000000000000000000000000000000000000000000000000081526004016108e99061315e565b60405180910390fd5b6108fc838361190b565b505050565b61091261090c6118d4565b826119c4565b610951576040517f08c379a0000000000000000000000000000000000000000000000000000000008152600401610948906131f0565b60405180910390fd5b61095c838383611aa2565b505050565b600066038d7ea4c680003073ffffffffffffffffffffffffffffffffffffffff1663b69ef8a86040518163ffffffff1660e01b8152600401602060405180830381865afa1580156109b6573d6000803e3d6000fd5b505050506040513d601f19601f820116820180604052508101906109da9190613225565b1115905090565b6109fc838383604051806020016040528060008152506112c1565b505050565b600a8054610a0e90612f97565b80601f0160208091040260200160405190810160405280929190818152602001828054610a3a90612f97565b8015610a875780601f10610a5c57610100808354040283529160200191610a87565b820191906000526020600020905b815481529060010190602001808311610a6a57829003601f168201915b505050505081565b6000600760009054906101000a900473ffffffffffffffffffffffffffffffffffffffff1673ffffffffffffffffffffffffffffffffffffffff168273ffffffffffffffffffffffffffffffffffffffff16149050919050565b6060600082118015610b045750610b006008611d08565b8211155b610b43576040517f08c379a0000000000000000000000000000000000000000000000000000000008152600401610b3a9061329e565b60405180910390fd5b600060096000848152602001908152602001600020905080600101805480602002602001604051908101604052809291908181526020016000905b82821015610c2a578382906000526020600020018054610b9d90612f97565b80601f0160208091040260200160405190810160405280929190818152602001828054610bc990612f97565b8015610c165780601f10610beb57610100808354040283529160200191610c16565b820191906000526020600020905b815481529060010190602001808311610bf957829003601f168201915b505050505081526020019060010190610b7e565b50505050915050919050565b6000806002600084815260200190815260200160002060009054906101000a900473ffffffffffffffffffffffffffffffffffffffff169050600073ffffffffffffffffffffffffffffffffffffffff168173ffffffffffffffffffffffffffffffffffffffff1603610cde576040517f08c379a0000000000000000000000000000000000000000000000000000000008152600401610cd590613330565b60405180910390fd5b80915050919050565b60008073ffffffffffffffffffffffffffffffffffffffff168273ffffffffffffffffffffffffffffffffffffffff1603610d57576040517f08c379a0000000000000000000000000000000000000000000000000000000008152600401610d4e906133c2565b60405180910390fd5b600360008373ffffffffffffffffffffffffffffffffffffffff1673ffffffffffffffffffffffffffffffffffffffff168152602001908152602001600020549050919050565b6000600760009054906101000a900473ffffffffffffffffffffffffffffffffffffffff16905090565b6060600082118015610de35750610ddf6008611d08565b8211155b610e22576040517f08c379a0000000000000000000000000000000000000000000000000000000008152600401610e199061329e565b60405180910390fd5b600060096000848152602001908152602001600020905080600201805480602002602001604051908101604052809291908181526020018280548015610ebd57602002820191906000526020600020905b8160009054906101000a900473ffffffffffffffffffffffffffffffffffffffff1673ffffffffffffffffffffffffffffffffffffffff1681526020019060010190808311610e73575b5050505050915050919050565b606060018054610ed990612f97565b80601f0160208091040260200160405190810160405280929190818152602001828054610f0590612f97565b8015610f525780601f10610f2757610100808354040283529160200191610f52565b820191906000526020600020905b815481529060010190602001808311610f3557829003601f168201915b5050505050905090565b610f6e610f676118d4565b8383611d16565b5050565b600047905090565b66038d7ea4c680003073ffffffffffffffffffffffffffffffffffffffff1663b69ef8a86040518163ffffffff1660e01b8152600401602060405180830381865afa158015610fcd573d6000803e3d6000fd5b505050506040513d601f19601f82011682018060405250810190610ff19190613225565b11611031576040517f08c379a00000000000000000000000000000000000000000000000000000000081526004016110289061342e565b60405180910390fd5b6090828290501115609060405160200161104b9190613512565b6040516020818303038152906040529061109b576040517f08c379a000000000000000000000000000000000000000000000000000000000815260040161109291906127a4565b60405180910390fd5b5060006110a86008611d08565b905060006009600083815260200190815260200160002090508060030160006110cf6118d4565b73ffffffffffffffffffffffffffffffffffffffff1673ffffffffffffffffffffffffffffffffffffffff16815260200190815260200160002060009054906101000a900460ff1615611157576040517f08c379a000000000000000000000000000000000000000000000000000000000815260040161114e9061358f565b60405180910390fd5b80600101848490918060018154018082558091505060019003906000526020600020016000909192909192909192909192509190611196929190612513565b5060018160030160006111a76118d4565b73ffffffffffffffffffffffffffffffffffffffff1673ffffffffffffffffffffffffffffffffffffffff16815260200190815260200160002060006101000a81548160ff021916908315150217905550806002016112046118d4565b9080600181540180825580915050600190039060005260206000200160009091909190916101000a81548173ffffffffffffffffffffffffffffffffffffffff021916908373ffffffffffffffffffffffffffffffffffffffff16021790555061126c6118d4565b73ffffffffffffffffffffffffffffffffffffffff167f9f33a67c53a84e8cde2f7d12ef3394ed862f10366aeb1f731ca4f92da8e1eb5e85856040516112b39291906135ed565b60405180910390a250505050565b6112d26112cc6118d4565b836119c4565b611311576040517f08c379a0000000000000000000000000000000000000000000000000000000008152600401611308906131f0565b60405180910390fd5b61131d84848484611e82565b50505050565b6000808211801561133d57506113396008611d08565b8211155b61137c576040517f08c379a00000000000000000000000000000000000000000000000000000000081526004016113739061329e565b60405180910390fd5b60096000838152602001908152602001600020600101805490509050919050565b66038d7ea4c6800034101566038d7ea4c680006040516020016113c091906136a9565b60405160208183030381529060405290611410576040517f08c379a000000000000000000000000000000000000000000000000000000000815260040161140791906127a4565b60405180910390fd5b50343073ffffffffffffffffffffffffffffffffffffffff1663b69ef8a86040518163ffffffff1660e01b8152600401602060405180830381865afa15801561145d573d6000803e3d6000fd5b505050506040513d601f19601f820116820180604052508101906114819190613225565b61148b9190613709565b66038d7ea4c68000116114d3576040517f08c379a00000000000000000000000000000000000000000000000000000000081526004016114ca90613789565b60405180910390fd5b6114dd6008611ede565b60006114e96008611d08565b90506114fc6114f66118d4565b82611ef4565b61154a8184848080601f016020809104026020016040519081016040528093929190818152602001838380828437600081840152601f19601f820116905080830192505050505050506120cd565b60006009600083815260200190815260200160002090506115696118d4565b8160000160006101000a81548173ffffffffffffffffffffffffffffffffffffffff021916908373ffffffffffffffffffffffffffffffffffffffff1602179055506115b36118d4565b73ffffffffffffffffffffffffffffffffffffffff167f6b71845b41ad7e47fc425c6c551ede0c8b26e315324ba111f797b195cabed4dd85856040516115fa9291906137d6565b60405180910390a250505050565b606061161382611868565b611652576040517f08c379a00000000000000000000000000000000000000000000000000000000081526004016116499061386c565b60405180910390fd5b600060066000848152602001908152602001600020805461167290612f97565b80601f016020809104026020016040519081016040528092919081815260200182805461169e90612f97565b80156116eb5780601f106116c0576101008083540402835291602001916116eb565b820191906000526020600020905b8154815290600101906020018083116116ce57829003601f168201915b5050505050905060006116fc612141565b90506000815103611711578192505050611754565b60008251111561174657808260405160200161172e9291906138bd565b60405160208183030381529060405292505050611754565b61174f84612158565b925050505b919050565b60006117656008611d08565b905090565b6000600560008473ffffffffffffffffffffffffffffffffffffffff1673ffffffffffffffffffffffffffffffffffffffff16815260200190815260200160002060008373ffffffffffffffffffffffffffffffffffffffff1673ffffffffffffffffffffffffffffffffffffffff16815260200190815260200160002060009054906101000a900460ff16905092915050565b60007f01ffc9a7000000000000000000000000000000000000000000000000000000007bffffffffffffffffffffffffffffffffffffffffffffffffffffffff1916827bffffffffffffffffffffffffffffffffffffffffffffffffffffffff1916149050919050565b60008073ffffffffffffffffffffffffffffffffffffffff166002600084815260200190815260200160002060009054906101000a900473ffffffffffffffffffffffffffffffffffffffff1673ffffffffffffffffffffffffffffffffffffffff1614159050919050565b600060146000369050101580156118f057506118ef33610a8f565b5b1561190457601436033560601c9050611908565b3390505b90565b816004600083815260200190815260200160002060006101000a81548173ffffffffffffffffffffffffffffffffffffffff021916908373ffffffffffffffffffffffffffffffffffffffff160217905550808273ffffffffffffffffffffffffffffffffffffffff1661197e83610c36565b73ffffffffffffffffffffffffffffffffffffffff167f8c5be1e5ebec7d5bd14f71427d1e84f3dd0314c0f7b2291e5b200ac8c7c3b92560405160405180910390a45050565b60006119cf82611868565b611a0e576040517f08c379a0000000000000000000000000000000000000000000000000000000008152600401611a0590613953565b60405180910390fd5b6000611a1983610c36565b90508073ffffffffffffffffffffffffffffffffffffffff168473ffffffffffffffffffffffffffffffffffffffff161480611a5b5750611a5a818561176a565b5b80611a9957508373ffffffffffffffffffffffffffffffffffffffff16611a8184610765565b73ffffffffffffffffffffffffffffffffffffffff16145b91505092915050565b8273ffffffffffffffffffffffffffffffffffffffff16611ac282610c36565b73ffffffffffffffffffffffffffffffffffffffff1614611b18576040517f08c379a0000000000000000000000000000000000000000000000000000000008152600401611b0f906139e5565b60405180910390fd5b600073ffffffffffffffffffffffffffffffffffffffff168273ffffffffffffffffffffffffffffffffffffffff1603611b87576040517f08c379a0000000000000000000000000000000000000000000000000000000008152600401611b7e90613a77565b60405180910390fd5b611b928383836121ff565b611b9d60008261190b565b6001600360008573ffffffffffffffffffffffffffffffffffffffff1673ffffffffffffffffffffffffffffffffffffffff1681526020019081526020016000206000828254611bed9190613709565b925050819055506001600360008473ffffffffffffffffffffffffffffffffffffffff1673ffffffffffffffffffffffffffffffffffffffff1681526020019081526020016000206000828254611c449190613a97565b92505081905550816002600083815260200190815260200160002060006101000a81548173ffffffffffffffffffffffffffffffffffffffff021916908373ffffffffffffffffffffffffffffffffffffffff160217905550808273ffffffffffffffffffffffffffffffffffffffff168473ffffffffffffffffffffffffffffffffffffffff167fddf252ad1be2c89b69c2b068fc378daa952ba7f163c4a11628f55a4df523b3ef60405160405180910390a4611d03838383612204565b505050565b600081600001549050919050565b8173ffffffffffffffffffffffffffffffffffffffff168373ffffffffffffffffffffffffffffffffffffffff1603611d84576040517f08c379a0000000000000000000000000000000000000000000000000000000008152600401611d7b90613b39565b60405180910390fd5b80600560008573ffffffffffffffffffffffffffffffffffffffff1673ffffffffffffffffffffffffffffffffffffffff16815260200190815260200160002060008473ffffffffffffffffffffffffffffffffffffffff1673ffffffffffffffffffffffffffffffffffffffff16815260200190815260200160002060006101000a81548160ff0219169083151502179055508173ffffffffffffffffffffffffffffffffffffffff168373ffffffffffffffffffffffffffffffffffffffff167f17307eab39ab6107e8899845ad3d59bd9653f200f220920489ca2b5937696c3183604051611e7591906126f0565b60405180910390a3505050565b611e8d848484611aa2565b611e9984848484612209565b611ed8576040517f08c379a0000000000000000000000000000000000000000000000000000000008152600401611ecf90613bcb565b60405180910390fd5b50505050565b6001816000016000828254019250508190555050565b600073ffffffffffffffffffffffffffffffffffffffff168273ffffffffffffffffffffffffffffffffffffffff1603611f63576040517f08c379a0000000000000000000000000000000000000000000000000000000008152600401611f5a90613c37565b60405180910390fd5b611f6c81611868565b15611fac576040517f08c379a0000000000000000000000000000000000000000000000000000000008152600401611fa390613ca3565b60405180910390fd5b611fb8600083836121ff565b6001600360008473ffffffffffffffffffffffffffffffffffffffff1673ffffffffffffffffffffffffffffffffffffffff16815260200190815260200160002060008282546120089190613a97565b92505081905550816002600083815260200190815260200160002060006101000a81548173ffffffffffffffffffffffffffffffffffffffff021916908373ffffffffffffffffffffffffffffffffffffffff160217905550808273ffffffffffffffffffffffffffffffffffffffff16600073ffffffffffffffffffffffffffffffffffffffff167fddf252ad1be2c89b69c2b068fc378daa952ba7f163c4a11628f55a4df523b3ef60405160405180910390a46120c960008383612204565b5050565b6120d682611868565b612115576040517f08c379a000000000000000000000000000000000000000000000000000000000815260040161210c90613d35565b60405180910390fd5b8060066000848152602001908152602001600020908051906020019061213c929190612599565b505050565b606060405180602001604052806000815250905090565b606061216382611868565b6121a2576040517f08c379a000000000000000000000000000000000000000000000000000000000815260040161219990613dc7565b60405180910390fd5b60006121ac612141565b905060008151116121cc57604051806020016040528060008152506121f7565b806121d684612390565b6040516020016121e79291906138bd565b6040516020818303038152906040525b915050919050565b505050565b505050565b600061222a8473ffffffffffffffffffffffffffffffffffffffff166124f0565b15612383578373ffffffffffffffffffffffffffffffffffffffff1663150b7a026122536118d4565b8786866040518563ffffffff1660e01b81526004016122759493929190613e20565b6020604051808303816000875af19250505080156122b157506040513d601f19601f820116820180604052508101906122ae9190613e81565b60015b612333573d80600081146122e1576040519150601f19603f3d011682016040523d82523d6000602084013e6122e6565b606091505b50600081510361232b576040517f08c379a000000000000000000000000000000000000000000000000000000000815260040161232290613bcb565b60405180910390fd5b805181602001fd5b63150b7a0260e01b7bffffffffffffffffffffffffffffffffffffffffffffffffffffffff1916817bffffffffffffffffffffffffffffffffffffffffffffffffffffffff191614915050612388565b600190505b949350505050565b6060600082036123d7576040518060400160405280600181526020017f300000000000000000000000000000000000000000000000000000000000000081525090506124eb565b600082905060005b600082146124095780806123f290613eae565b915050600a826124029190613f25565b91506123df565b60008167ffffffffffffffff81111561242557612424612cd7565b5b6040519080825280601f01601f1916602001820160405280156124575781602001600182028036833780820191505090505b5090505b600085146124e4576001826124709190613709565b9150600a8561247f9190613f56565b603061248b9190613a97565b60f81b8183815181106124a1576124a0613f87565b5b60200101907effffffffffffffffffffffffffffffffffffffffffffffffffffffffffffff1916908160001a905350600a856124dd9190613f25565b945061245b565b8093505050505b919050565b6000808273ffffffffffffffffffffffffffffffffffffffff163b119050919050565b82805461251f90612f97565b90600052602060002090601f0160209004810192826125415760008555612588565b82601f1061255a57803560ff1916838001178555612588565b82800160010185558215612588579182015b8281111561258757823582559160200191906001019061256c565b5b509050612595919061261f565b5090565b8280546125a590612f97565b90600052602060002090601f0160209004810192826125c7576000855561260e565b82601f106125e057805160ff191683800117855561260e565b8280016001018555821561260e579182015b8281111561260d5782518255916020019190600101906125f2565b5b50905061261b919061261f565b5090565b5b80821115612638576000816000905550600101612620565b5090565b6000604051905090565b600080fd5b600080fd5b60007fffffffff0000000000000000000000000000000000000000000000000000000082169050919050565b61268581612650565b811461269057600080fd5b50565b6000813590506126a28161267c565b92915050565b6000602082840312156126be576126bd612646565b5b60006126cc84828501612693565b91505092915050565b60008115159050919050565b6126ea816126d5565b82525050565b600060208201905061270560008301846126e1565b92915050565b600081519050919050565b600082825260208201905092915050565b60005b8381101561274557808201518184015260208101905061272a565b83811115612754576000848401525b50505050565b6000601f19601f8301169050919050565b60006127768261270b565b6127808185612716565b9350612790818560208601612727565b6127998161275a565b840191505092915050565b600060208201905081810360008301526127be818461276b565b905092915050565b6000819050919050565b6127d9816127c6565b81146127e457600080fd5b50565b6000813590506127f6816127d0565b92915050565b60006020828403121561281257612811612646565b5b6000612820848285016127e7565b91505092915050565b600073ffffffffffffffffffffffffffffffffffffffff82169050919050565b600061285482612829565b9050919050565b61286481612849565b82525050565b600060208201905061287f600083018461285b565b92915050565b61288e81612849565b811461289957600080fd5b50565b6000813590506128ab81612885565b92915050565b600080604083850312156128c8576128c7612646565b5b60006128d68582860161289c565b92505060206128e7858286016127e7565b9150509250929050565b60008060006060848603121561290a57612909612646565b5b60006129188682870161289c565b93505060206129298682870161289c565b925050604061293a868287016127e7565b9150509250925092565b60006020828403121561295a57612959612646565b5b60006129688482850161289c565b91505092915050565b600081519050919050565b600082825260208201905092915050565b6000819050602082019050919050565b600081519050919050565b600082825260208201905092915050565b60006129c48261299d565b6129ce81856129a8565b93506129de818560208601612727565b6129e78161275a565b840191505092915050565b60006129fe83836129b9565b905092915050565b6000602082019050919050565b6000612a1e82612971565b612a28818561297c565b935083602082028501612a3a8561298d565b8060005b85811015612a765784840389528151612a5785826129f2565b9450612a6283612a06565b925060208a01995050600181019050612a3e565b50829750879550505050505092915050565b60006020820190508181036000830152612aa28184612a13565b905092915050565b612ab3816127c6565b82525050565b6000602082019050612ace6000830184612aaa565b92915050565b600081519050919050565b600082825260208201905092915050565b6000819050602082019050919050565b612b0981612849565b82525050565b6000612b1b8383612b00565b60208301905092915050565b6000602082019050919050565b6000612b3f82612ad4565b612b498185612adf565b9350612b5483612af0565b8060005b83811015612b85578151612b6c8882612b0f565b9750612b7783612b27565b925050600181019050612b58565b5085935050505092915050565b60006020820190508181036000830152612bac8184612b34565b905092915050565b612bbd816126d5565b8114612bc857600080fd5b50565b600081359050612bda81612bb4565b92915050565b60008060408385031215612bf757612bf6612646565b5b6000612c058582860161289c565b9250506020612c1685828601612bcb565b9150509250929050565b600080fd5b600080fd5b600080fd5b60008083601f840112612c4557612c44612c20565b5b8235905067ffffffffffffffff811115612c6257612c61612c25565b5b602083019150836001820283011115612c7e57612c7d612c2a565b5b9250929050565b60008060208385031215612c9c57612c9b612646565b5b600083013567ffffffffffffffff811115612cba57612cb961264b565b5b612cc685828601612c2f565b92509250509250929050565b600080fd5b7f4e487b7100000000000000000000000000000000000000000000000000000000600052604160045260246000fd5b612d0f8261275a565b810181811067ffffffffffffffff82111715612d2e57612d2d612cd7565b5b80604052505050565b6000612d4161263c565b9050612d4d8282612d06565b919050565b600067ffffffffffffffff821115612d6d57612d6c612cd7565b5b612d768261275a565b9050602081019050919050565b82818337600083830152505050565b6000612da5612da084612d52565b612d37565b905082815260208101848484011115612dc157612dc0612cd2565b5b612dcc848285612d83565b509392505050565b600082601f830112612de957612de8612c20565b5b8135612df9848260208601612d92565b91505092915050565b60008060008060808587031215612e1c57612e1b612646565b5b6000612e2a8782880161289c565b9450506020612e3b8782880161289c565b9350506040612e4c878288016127e7565b925050606085013567ffffffffffffffff811115612e6d57612e6c61264b565b5b612e7987828801612dd4565b91505092959194509250565b60008083601f840112612e9b57612e9a612c20565b5b8235905067ffffffffffffffff811115612eb857612eb7612c25565b5b602083019150836001820283011115612ed457612ed3612c2a565b5b9250929050565b60008060208385031215612ef257612ef1612646565b5b600083013567ffffffffffffffff811115612f1057612f0f61264b565b5b612f1c85828601612e85565b92509250509250929050565b60008060408385031215612f3f57612f3e612646565b5b6000612f4d8582860161289c565b9250506020612f5e8582860161289c565b9150509250929050565b7f4e487b7100000000000000000000000000000000000000000000000000000000600052602260045260246000fd5b60006002820490506001821680612faf57607f821691505b602082108103612fc257612fc1612f68565b5b50919050565b7f4552433732313a20617070726f76656420717565727920666f72206e6f6e657860008201527f697374656e7420746f6b656e0000000000000000000000000000000000000000602082015250565b6000613024602c83612716565b915061302f82612fc8565b604082019050919050565b6000602082019050818103600083015261305381613017565b9050919050565b7f4552433732313a20617070726f76616c20746f2063757272656e74206f776e6560008201527f7200000000000000000000000000000000000000000000000000000000000000602082015250565b60006130b6602183612716565b91506130c18261305a565b604082019050919050565b600060208201905081810360008301526130e5816130a9565b9050919050565b7f4552433732313a20617070726f76652063616c6c6572206973206e6f74206f7760008201527f6e6572206e6f7220617070726f76656420666f7220616c6c0000000000000000602082015250565b6000613148603883612716565b9150613153826130ec565b604082019050919050565b600060208201905081810360008301526131778161313b565b9050919050565b7f4552433732313a207472616e736665722063616c6c6572206973206e6f74206f60008201527f776e6572206e6f7220617070726f766564000000000000000000000000000000602082015250565b60006131da603183612716565b91506131e58261317e565b604082019050919050565b60006020820190508181036000830152613209816131cd565b9050919050565b60008151905061321f816127d0565b92915050565b60006020828403121561323b5761323a612646565b5b600061324984828501613210565b91505092915050565b7f696e76616c696420696e70757400000000000000000000000000000000000000600082015250565b6000613288600d83612716565b915061329382613252565b602082019050919050565b600060208201905081810360008301526132b78161327b565b9050919050565b7f4552433732313a206f776e657220717565727920666f72206e6f6e657869737460008201527f656e7420746f6b656e0000000000000000000000000000000000000000000000602082015250565b600061331a602983612716565b9150613325826132be565b604082019050919050565b600060208201905081810360008301526133498161330d565b9050919050565b7f4552433732313a2062616c616e636520717565727920666f7220746865207a6560008201527f726f206164647265737300000000000000000000000000000000000000000000602082015250565b60006133ac602a83612716565b91506133b782613350565b604082019050919050565b600060208201905081810360008301526133db8161339f565b9050919050565b7f4e6f7420656e6f7567682062616c616e63650000000000000000000000000000600082015250565b6000613418601283612716565b9150613423826133e2565b602082019050919050565b600060208201905081810360008301526134478161340b565b9050919050565b600081905092915050565b7f4174206d6f737420000000000000000000000000000000000000000000000000600082015250565b600061348f60088361344e565b915061349a82613459565b600882019050919050565b6000819050919050565b6134c06134bb826127c6565b6134a5565b82525050565b7f20627974652e0000000000000000000000000000000000000000000000000000600082015250565b60006134fc60068361344e565b9150613507826134c6565b600682019050919050565b600061351d82613482565b915061352982846134af565b602082019150613538826134ef565b915081905092915050565b7f416c7265617920636f6d6d697474656400000000000000000000000000000000600082015250565b6000613579601083612716565b915061358482613543565b602082019050919050565b600060208201905081810360008301526135a88161356c565b9050919050565b600082825260208201905092915050565b60006135cc83856135af565b93506135d9838584612d83565b6135e28361275a565b840190509392505050565b600060208201905081810360008301526136088184866135c0565b90509392505050565b7f4174206c65617374200000000000000000000000000000000000000000000000600082015250565b600061364760098361344e565b915061365282613611565b600982019050919050565b7f2077656900000000000000000000000000000000000000000000000000000000600082015250565b600061369360048361344e565b915061369e8261365d565b600482019050919050565b60006136b48261363a565b91506136c082846134af565b6020820191506136cf82613686565b915081905092915050565b7f4e487b7100000000000000000000000000000000000000000000000000000000600052601160045260246000fd5b6000613714826127c6565b915061371f836127c6565b925082821015613732576137316136da565b5b828203905092915050565b7f49742773206e6f742072656e7461626c65206e6f772e00000000000000000000600082015250565b6000613773601683612716565b915061377e8261373d565b602082019050919050565b600060208201905081810360008301526137a281613766565b9050919050565b60006137b58385612716565b93506137c2838584612d83565b6137cb8361275a565b840190509392505050565b600060208201905081810360008301526137f18184866137a9565b90509392505050565b7f45524337323155524953746f726167653a2055524920717565727920666f722060008201527f6e6f6e6578697374656e7420746f6b656e000000000000000000000000000000602082015250565b6000613856603183612716565b9150613861826137fa565b604082019050919050565b6000602082019050818103600083015261388581613849565b9050919050565b60006138978261270b565b6138a1818561344e565b93506138b1818560208601612727565b80840191505092915050565b60006138c9828561388c565b91506138d5828461388c565b91508190509392505050565b7f4552433732313a206f70657261746f7220717565727920666f72206e6f6e657860008201527f697374656e7420746f6b656e0000000000000000000000000000000000000000602082015250565b600061393d602c83612716565b9150613948826138e1565b604082019050919050565b6000602082019050818103600083015261396c81613930565b9050919050565b7f4552433732313a207472616e736665722066726f6d20696e636f72726563742060008201527f6f776e6572000000000000000000000000000000000000000000000000000000602082015250565b60006139cf602583612716565b91506139da82613973565b604082019050919050565b600060208201905081810360008301526139fe816139c2565b9050919050565b7f4552433732313a207472616e7366657220746f20746865207a65726f2061646460008201527f7265737300000000000000000000000000000000000000000000000000000000602082015250565b6000613a61602483612716565b9150613a6c82613a05565b604082019050919050565b60006020820190508181036000830152613a9081613a54565b9050919050565b6000613aa2826127c6565b9150613aad836127c6565b9250827fffffffffffffffffffffffffffffffffffffffffffffffffffffffffffffffff03821115613ae257613ae16136da565b5b828201905092915050565b7f4552433732313a20617070726f766520746f2063616c6c657200000000000000600082015250565b6000613b23601983612716565b9150613b2e82613aed565b602082019050919050565b60006020820190508181036000830152613b5281613b16565b9050919050565b7f4552433732313a207472616e7366657220746f206e6f6e20455243373231526560008201527f63656976657220696d706c656d656e7465720000000000000000000000000000602082015250565b6000613bb5603283612716565b9150613bc082613b59565b604082019050919050565b60006020820190508181036000830152613be481613ba8565b9050919050565b7f4552433732313a206d696e7420746f20746865207a65726f2061646472657373600082015250565b6000613c21602083612716565b9150613c2c82613beb565b602082019050919050565b60006020820190508181036000830152613c5081613c14565b9050919050565b7f4552433732313a20746f6b656e20616c7265616479206d696e74656400000000600082015250565b6000613c8d601c83612716565b9150613c9882613c57565b602082019050919050565b60006020820190508181036000830152613cbc81613c80565b9050919050565b7f45524337323155524953746f726167653a2055524920736574206f66206e6f6e60008201527f6578697374656e7420746f6b656e000000000000000000000000000000000000602082015250565b6000613d1f602e83612716565b9150613d2a82613cc3565b604082019050919050565b60006020820190508181036000830152613d4e81613d12565b9050919050565b7f4552433732314d657461646174613a2055524920717565727920666f72206e6f60008201527f6e6578697374656e7420746f6b656e0000000000000000000000000000000000602082015250565b6000613db1602f83612716565b9150613dbc82613d55565b604082019050919050565b60006020820190508181036000830152613de081613da4565b9050919050565b6000613df28261299d565b613dfc81856135af565b9350613e0c818560208601612727565b613e158161275a565b840191505092915050565b6000608082019050613e35600083018761285b565b613e42602083018661285b565b613e4f6040830185612aaa565b8181036060830152613e618184613de7565b905095945050505050565b600081519050613e7b8161267c565b92915050565b600060208284031215613e9757613e96612646565b5b6000613ea584828501613e6c565b91505092915050565b6000613eb9826127c6565b91507fffffffffffffffffffffffffffffffffffffffffffffffffffffffffffffffff8203613eeb57613eea6136da565b5b600182019050919050565b7f4e487b7100000000000000000000000000000000000000000000000000000000600052601260045260246000fd5b6000613f30826127c6565b9150613f3b836127c6565b925082613f4b57613f4a613ef6565b5b828204905092915050565b6000613f61826127c6565b9150613f6c836127c6565b925082613f7c57613f7b613ef6565b5b828206905092915050565b7f4e487b7100000000000000000000000000000000000000000000000000000000600052603260045260246000fdfea26469706673582212204d9552a8cba29e98d267499429e4c5e6bfd1fafeb71888f80cfbcf4a06d0fb8364736f6c634300080e0033",
  "linkReferences": {},
  "deployedLinkReferences": {}
}